{
  "contractName": "XaltsToken",
  "abi": [
    {
      "inputs": [
        {
          "internalType": "string",
          "name": "_name",
          "type": "string"
        },
        {
          "internalType": "string",
          "name": "_symbol",
          "type": "string"
        },
        {
          "internalType": "uint256",
          "name": "_initialSupply",
          "type": "uint256"
        },
        {
          "internalType": "address",
          "name": "_owner",
          "type": "address"
        },
        {
          "internalType": "address[]",
          "name": "_whiteList",
          "type": "address[]"
        },
        {
          "internalType": "address[]",
          "name": "_blackList",
          "type": "address[]"
        }
      ],
      "stateMutability": "nonpayable",
      "type": "constructor"
    },
    {
      "anonymous": false,
      "inputs": [
        {
          "indexed": true,
          "internalType": "address",
          "name": "owner",
          "type": "address"
        },
        {
          "indexed": true,
          "internalType": "address",
          "name": "spender",
          "type": "address"
        },
        {
          "indexed": false,
          "internalType": "uint256",
          "name": "value",
          "type": "uint256"
        }
      ],
      "name": "Approval",
      "type": "event"
    },
    {
      "anonymous": false,
      "inputs": [
        {
          "indexed": true,
          "internalType": "address",
          "name": "previousOwner",
          "type": "address"
        },
        {
          "indexed": true,
          "internalType": "address",
          "name": "newOwner",
          "type": "address"
        }
      ],
      "name": "OwnershipTransferred",
      "type": "event"
    },
    {
      "anonymous": false,
      "inputs": [
        {
          "indexed": true,
          "internalType": "address",
          "name": "from",
          "type": "address"
        },
        {
          "indexed": true,
          "internalType": "address",
          "name": "to",
          "type": "address"
        },
        {
          "indexed": false,
          "internalType": "uint256",
          "name": "value",
          "type": "uint256"
        }
      ],
      "name": "Transfer",
      "type": "event"
    },
    {
      "inputs": [
        {
          "internalType": "address",
          "name": "owner",
          "type": "address"
        },
        {
          "internalType": "address",
          "name": "spender",
          "type": "address"
        }
      ],
      "name": "allowance",
      "outputs": [
        {
          "internalType": "uint256",
          "name": "",
          "type": "uint256"
        }
      ],
      "stateMutability": "view",
      "type": "function"
    },
    {
      "inputs": [
        {
          "internalType": "address",
          "name": "spender",
          "type": "address"
        },
        {
          "internalType": "uint256",
          "name": "amount",
          "type": "uint256"
        }
      ],
      "name": "approve",
      "outputs": [
        {
          "internalType": "bool",
          "name": "",
          "type": "bool"
        }
      ],
      "stateMutability": "nonpayable",
      "type": "function"
    },
    {
      "inputs": [
        {
          "internalType": "address",
          "name": "account",
          "type": "address"
        }
      ],
      "name": "balanceOf",
      "outputs": [
        {
          "internalType": "uint256",
          "name": "",
          "type": "uint256"
        }
      ],
      "stateMutability": "view",
      "type": "function"
    },
    {
      "inputs": [
        {
          "internalType": "uint256",
          "name": "amount",
          "type": "uint256"
        }
      ],
      "name": "burn",
      "outputs": [],
      "stateMutability": "nonpayable",
      "type": "function"
    },
    {
      "inputs": [
        {
          "internalType": "address",
          "name": "account",
          "type": "address"
        },
        {
          "internalType": "uint256",
          "name": "amount",
          "type": "uint256"
        }
      ],
      "name": "burnFrom",
      "outputs": [],
      "stateMutability": "nonpayable",
      "type": "function"
    },
    {
      "inputs": [],
      "name": "decimals",
      "outputs": [
        {
          "internalType": "uint8",
          "name": "",
          "type": "uint8"
        }
      ],
      "stateMutability": "view",
      "type": "function"
    },
    {
      "inputs": [
        {
          "internalType": "address",
          "name": "spender",
          "type": "address"
        },
        {
          "internalType": "uint256",
          "name": "subtractedValue",
          "type": "uint256"
        }
      ],
      "name": "decreaseAllowance",
      "outputs": [
        {
          "internalType": "bool",
          "name": "",
          "type": "bool"
        }
      ],
      "stateMutability": "nonpayable",
      "type": "function"
    },
    {
      "inputs": [
        {
          "internalType": "address",
          "name": "spender",
          "type": "address"
        },
        {
          "internalType": "uint256",
          "name": "addedValue",
          "type": "uint256"
        }
      ],
      "name": "increaseAllowance",
      "outputs": [
        {
          "internalType": "bool",
          "name": "",
          "type": "bool"
        }
      ],
      "stateMutability": "nonpayable",
      "type": "function"
    },
    {
      "inputs": [],
      "name": "name",
      "outputs": [
        {
          "internalType": "string",
          "name": "",
          "type": "string"
        }
      ],
      "stateMutability": "view",
      "type": "function"
    },
    {
      "inputs": [],
      "name": "owner",
      "outputs": [
        {
          "internalType": "address",
          "name": "",
          "type": "address"
        }
      ],
      "stateMutability": "view",
      "type": "function"
    },
    {
      "inputs": [],
      "name": "renounceOwnership",
      "outputs": [],
      "stateMutability": "nonpayable",
      "type": "function"
    },
    {
      "inputs": [],
      "name": "symbol",
      "outputs": [
        {
          "internalType": "string",
          "name": "",
          "type": "string"
        }
      ],
      "stateMutability": "view",
      "type": "function"
    },
    {
      "inputs": [],
      "name": "totalSupply",
      "outputs": [
        {
          "internalType": "uint256",
          "name": "",
          "type": "uint256"
        }
      ],
      "stateMutability": "view",
      "type": "function"
    },
    {
      "inputs": [
        {
          "internalType": "address",
          "name": "from",
          "type": "address"
        },
        {
          "internalType": "address",
          "name": "to",
          "type": "address"
        },
        {
          "internalType": "uint256",
          "name": "amount",
          "type": "uint256"
        }
      ],
      "name": "transferFrom",
      "outputs": [
        {
          "internalType": "bool",
          "name": "",
          "type": "bool"
        }
      ],
      "stateMutability": "nonpayable",
      "type": "function"
    },
    {
      "inputs": [
        {
          "internalType": "address",
          "name": "newOwner",
          "type": "address"
        }
      ],
      "name": "transferOwnership",
      "outputs": [],
      "stateMutability": "nonpayable",
      "type": "function"
    },
    {
      "inputs": [
        {
          "internalType": "address",
          "name": "_whiteListedAddress",
          "type": "address"
        }
      ],
      "name": "whiteListAddress",
      "outputs": [],
      "stateMutability": "nonpayable",
      "type": "function"
    },
    {
      "inputs": [
        {
          "internalType": "address",
          "name": "_blackListedAddress",
          "type": "address"
        }
      ],
      "name": "blackListAddress",
      "outputs": [],
      "stateMutability": "nonpayable",
      "type": "function"
    },
    {
      "inputs": [
        {
          "internalType": "address",
          "name": "to",
          "type": "address"
        },
        {
          "internalType": "uint256",
          "name": "amount",
          "type": "uint256"
        }
      ],
      "name": "transfer",
      "outputs": [
        {
          "internalType": "bool",
          "name": "",
          "type": "bool"
        }
      ],
      "stateMutability": "nonpayable",
      "type": "function"
    }
  ],
  "bytecode": "0x60806040523480156200001157600080fd5b5060405162002b8338038062002b8383398181016040528101906200003791906200076b565b85858585838381600390816200004e919062000ac4565b50806004908162000060919062000ac4565b5050506200007581836200021860201b60201c565b50505050620000996200008d6200038560201b60201c565b6200038d60201b60201c565b60005b82518110156200013157600160076000858481518110620000c257620000c162000bab565b5b602002602001015173ffffffffffffffffffffffffffffffffffffffff1673ffffffffffffffffffffffffffffffffffffffff16815260200190815260200160002060006101000a81548160ff0219169083151502179055508080620001289062000c09565b9150506200009c565b5060005b8151811015620001ca576001600860008484815181106200015b576200015a62000bab565b5b602002602001015173ffffffffffffffffffffffffffffffffffffffff1673ffffffffffffffffffffffffffffffffffffffff16815260200190815260200160002060006101000a81548160ff0219169083151502179055508080620001c19062000c09565b91505062000135565b5082600660006101000a81548173ffffffffffffffffffffffffffffffffffffffff021916908373ffffffffffffffffffffffffffffffffffffffff16021790555050505050505062000d42565b600073ffffffffffffffffffffffffffffffffffffffff168273ffffffffffffffffffffffffffffffffffffffff16036200028a576040517f08c379a0000000000000000000000000000000000000000000000000000000008152600401620002819062000cb7565b60405180910390fd5b6200029e600083836200045360201b60201c565b8060026000828254620002b2919062000cd9565b92505081905550806000808473ffffffffffffffffffffffffffffffffffffffff1673ffffffffffffffffffffffffffffffffffffffff168152602001908152602001600020600082825401925050819055508173ffffffffffffffffffffffffffffffffffffffff16600073ffffffffffffffffffffffffffffffffffffffff167fddf252ad1be2c89b69c2b068fc378daa952ba7f163c4a11628f55a4df523b3ef8360405162000365919062000d25565b60405180910390a362000381600083836200045860201b60201c565b5050565b600033905090565b6000600560009054906101000a900473ffffffffffffffffffffffffffffffffffffffff16905081600560006101000a81548173ffffffffffffffffffffffffffffffffffffffff021916908373ffffffffffffffffffffffffffffffffffffffff1602179055508173ffffffffffffffffffffffffffffffffffffffff168173ffffffffffffffffffffffffffffffffffffffff167f8be0079c531659141344cd1fd0a4f28419497f9722a3daafe3b4186f6b6457e060405160405180910390a35050565b505050565b505050565b6000604051905090565b600080fd5b600080fd5b600080fd5b600080fd5b6000601f19601f8301169050919050565b7f4e487b7100000000000000000000000000000000000000000000000000000000600052604160045260246000fd5b620004c6826200047b565b810181811067ffffffffffffffff82111715620004e857620004e76200048c565b5b80604052505050565b6000620004fd6200045d565b90506200050b8282620004bb565b919050565b600067ffffffffffffffff8211156200052e576200052d6200048c565b5b62000539826200047b565b9050602081019050919050565b60005b838110156200056657808201518184015260208101905062000549565b60008484015250505050565b600062000589620005838462000510565b620004f1565b905082815260208101848484011115620005a857620005a762000476565b5b620005b584828562000546565b509392505050565b600082601f830112620005d557620005d462000471565b5b8151620005e784826020860162000572565b91505092915050565b6000819050919050565b6200060581620005f0565b81146200061157600080fd5b50565b6000815190506200062581620005fa565b92915050565b600073ffffffffffffffffffffffffffffffffffffffff82169050919050565b600062000658826200062b565b9050919050565b6200066a816200064b565b81146200067657600080fd5b50565b6000815190506200068a816200065f565b92915050565b600067ffffffffffffffff821115620006ae57620006ad6200048c565b5b602082029050602081019050919050565b600080fd5b6000620006db620006d58462000690565b620004f1565b90508083825260208201905060208402830185811115620007015762000700620006bf565b5b835b818110156200072e578062000719888262000679565b84526020840193505060208101905062000703565b5050509392505050565b600082601f83011262000750576200074f62000471565b5b815162000762848260208601620006c4565b91505092915050565b60008060008060008060c087890312156200078b576200078a62000467565b5b600087015167ffffffffffffffff811115620007ac57620007ab6200046c565b5b620007ba89828a01620005bd565b965050602087015167ffffffffffffffff811115620007de57620007dd6200046c565b5b620007ec89828a01620005bd565b9550506040620007ff89828a0162000614565b94505060606200081289828a0162000679565b935050608087015167ffffffffffffffff8111156200083657620008356200046c565b5b6200084489828a0162000738565b92505060a087015167ffffffffffffffff8111156200086857620008676200046c565b5b6200087689828a0162000738565b9150509295509295509295565b600081519050919050565b7f4e487b7100000000000000000000000000000000000000000000000000000000600052602260045260246000fd5b60006002820490506001821680620008d657607f821691505b602082108103620008ec57620008eb6200088e565b5b50919050565b60008190508160005260206000209050919050565b60006020601f8301049050919050565b600082821b905092915050565b600060088302620009567fffffffffffffffffffffffffffffffffffffffffffffffffffffffffffffffff8262000917565b62000962868362000917565b95508019841693508086168417925050509392505050565b6000819050919050565b6000620009a56200099f6200099984620005f0565b6200097a565b620005f0565b9050919050565b6000819050919050565b620009c18362000984565b620009d9620009d082620009ac565b84845462000924565b825550505050565b600090565b620009f0620009e1565b620009fd818484620009b6565b505050565b5b8181101562000a255762000a19600082620009e6565b60018101905062000a03565b5050565b601f82111562000a745762000a3e81620008f2565b62000a498462000907565b8101602085101562000a59578190505b62000a7162000a688562000907565b83018262000a02565b50505b505050565b600082821c905092915050565b600062000a996000198460080262000a79565b1980831691505092915050565b600062000ab4838362000a86565b9150826002028217905092915050565b62000acf8262000883565b67ffffffffffffffff81111562000aeb5762000aea6200048c565b5b62000af78254620008bd565b62000b0482828562000a29565b600060209050601f83116001811462000b3c576000841562000b27578287015190505b62000b33858262000aa6565b86555062000ba3565b601f19841662000b4c86620008f2565b60005b8281101562000b765784890151825560018201915060208501945060208101905062000b4f565b8683101562000b96578489015162000b92601f89168262000a86565b8355505b6001600288020188555050505b505050505050565b7f4e487b7100000000000000000000000000000000000000000000000000000000600052603260045260246000fd5b7f4e487b7100000000000000000000000000000000000000000000000000000000600052601160045260246000fd5b600062000c1682620005f0565b91507fffffffffffffffffffffffffffffffffffffffffffffffffffffffffffffffff820362000c4b5762000c4a62000bda565b5b600182019050919050565b600082825260208201905092915050565b7f45524332303a206d696e7420746f20746865207a65726f206164647265737300600082015250565b600062000c9f601f8362000c56565b915062000cac8262000c67565b602082019050919050565b6000602082019050818103600083015262000cd28162000c90565b9050919050565b600062000ce682620005f0565b915062000cf383620005f0565b925082820190508082111562000d0e5762000d0d62000bda565b5b92915050565b62000d1f81620005f0565b82525050565b600060208201905062000d3c600083018462000d14565b92915050565b611e318062000d526000396000f3fe608060405234801561001057600080fd5b50600436106101165760003560e01c8063715018a6116100a2578063a457c2d711610071578063a457c2d7146102cf578063a9059cbb146102ff578063cf52a7b21461032f578063dd62ed3e1461034b578063f2fde38b1461037b57610116565b8063715018a61461026d57806379cc6790146102775780638da5cb5b1461029357806395d89b41146102b157610116565b8063313ce567116100e9578063313ce567146101b757806339509351146101d55780633b0e01331461020557806342966c681461022157806370a082311461023d57610116565b806306fdde031461011b578063095ea7b31461013957806318160ddd1461016957806323b872dd14610187575b600080fd5b610123610397565b604051610130919061141e565b60405180910390f35b610153600480360381019061014e91906114d9565b610429565b6040516101609190611534565b60405180910390f35b61017161044c565b60405161017e919061155e565b60405180910390f35b6101a1600480360381019061019c9190611579565b610456565b6040516101ae9190611534565b60405180910390f35b6101bf610485565b6040516101cc91906115e8565b60405180910390f35b6101ef60048036038101906101ea91906114d9565b61048e565b6040516101fc9190611534565b60405180910390f35b61021f600480360381019061021a9190611603565b6104c5565b005b61023b60048036038101906102369190611630565b610683565b005b61025760048036038101906102529190611603565b610697565b604051610264919061155e565b60405180910390f35b6102756106df565b005b610291600480360381019061028c91906114d9565b6106f3565b005b61029b610713565b6040516102a8919061166c565b60405180910390f35b6102b961073d565b6040516102c6919061141e565b60405180910390f35b6102e960048036038101906102e491906114d9565b6107cf565b6040516102f69190611534565b60405180910390f35b610319600480360381019061031491906114d9565b610846565b6040516103269190611534565b60405180910390f35b61034960048036038101906103449190611603565b610a33565b005b61036560048036038101906103609190611687565b610a96565b604051610372919061155e565b60405180910390f35b61039560048036038101906103909190611603565b610b1d565b005b6060600380546103a6906116f6565b80601f01602080910402602001604051908101604052809291908181526020018280546103d2906116f6565b801561041f5780601f106103f45761010080835404028352916020019161041f565b820191906000526020600020905b81548152906001019060200180831161040257829003601f168201915b5050505050905090565b600080610434610ba0565b9050610441818585610ba8565b600191505092915050565b6000600254905090565b600080610461610ba0565b905061046e858285610d71565b610479858585610dfd565b60019150509392505050565b60006012905090565b600080610499610ba0565b90506104ba8185856104ab8589610a96565b6104b59190611756565b610ba8565b600191505092915050565b6104cd611073565b6001600860008373ffffffffffffffffffffffffffffffffffffffff1673ffffffffffffffffffffffffffffffffffffffff16815260200190815260200160002060006101000a81548160ff0219169083151502179055506000600a60008373ffffffffffffffffffffffffffffffffffffffff1673ffffffffffffffffffffffffffffffffffffffff1681526020019081526020016000208054806020026020016040519081016040528092919081815260200182805480156105e657602002820191906000526020600020905b8160009054906101000a900473ffffffffffffffffffffffffffffffffffffffff1673ffffffffffffffffffffffffffffffffffffffff168152602001906001019080831161059c575b5050505050905060005b815181101561067e576001600860008484815181106106125761061161178a565b5b602002602001015173ffffffffffffffffffffffffffffffffffffffff1673ffffffffffffffffffffffffffffffffffffffff16815260200190815260200160002060006101000a81548160ff0219169083151502179055508080610676906117b9565b9150506105f0565b505050565b61069461068e610ba0565b826110f1565b50565b60008060008373ffffffffffffffffffffffffffffffffffffffff1673ffffffffffffffffffffffffffffffffffffffff168152602001908152602001600020549050919050565b6106e7611073565b6106f160006112be565b565b610705826106ff610ba0565b83610d71565b61070f82826110f1565b5050565b6000600560009054906101000a900473ffffffffffffffffffffffffffffffffffffffff16905090565b60606004805461074c906116f6565b80601f0160208091040260200160405190810160405280929190818152602001828054610778906116f6565b80156107c55780601f1061079a576101008083540402835291602001916107c5565b820191906000526020600020905b8154815290600101906020018083116107a857829003601f168201915b5050505050905090565b6000806107da610ba0565b905060006107e88286610a96565b90508381101561082d576040517f08c379a000000000000000000000000000000000000000000000000000000000815260040161082490611873565b60405180910390fd5b61083a8286868403610ba8565b60019250505092915050565b6000600760008473ffffffffffffffffffffffffffffffffffffffff1673ffffffffffffffffffffffffffffffffffffffff16815260200190815260200160002060009054906101000a900460ff1680156108eb5750600860008473ffffffffffffffffffffffffffffffffffffffff1673ffffffffffffffffffffffffffffffffffffffff16815260200190815260200160002060009054906101000a900460ff16155b6108f457600080fd5b6108ff338484610dfd565b6001600960003373ffffffffffffffffffffffffffffffffffffffff1673ffffffffffffffffffffffffffffffffffffffff16815260200190815260200160002060008573ffffffffffffffffffffffffffffffffffffffff1673ffffffffffffffffffffffffffffffffffffffff16815260200190815260200160002060006101000a81548160ff0219169083151502179055506001600960008573ffffffffffffffffffffffffffffffffffffffff1673ffffffffffffffffffffffffffffffffffffffff16815260200190815260200160002060003373ffffffffffffffffffffffffffffffffffffffff1673ffffffffffffffffffffffffffffffffffffffff16815260200190815260200160002060006101000a81548160ff0219169083151502179055506001905092915050565b610a3b611073565b6001600760008373ffffffffffffffffffffffffffffffffffffffff1673ffffffffffffffffffffffffffffffffffffffff16815260200190815260200160002060006101000a81548160ff02191690831515021790555050565b6000600160008473ffffffffffffffffffffffffffffffffffffffff1673ffffffffffffffffffffffffffffffffffffffff16815260200190815260200160002060008373ffffffffffffffffffffffffffffffffffffffff1673ffffffffffffffffffffffffffffffffffffffff16815260200190815260200160002054905092915050565b610b25611073565b600073ffffffffffffffffffffffffffffffffffffffff168173ffffffffffffffffffffffffffffffffffffffff1603610b94576040517f08c379a0000000000000000000000000000000000000000000000000000000008152600401610b8b90611905565b60405180910390fd5b610b9d816112be565b50565b600033905090565b600073ffffffffffffffffffffffffffffffffffffffff168373ffffffffffffffffffffffffffffffffffffffff1603610c17576040517f08c379a0000000000000000000000000000000000000000000000000000000008152600401610c0e90611997565b60405180910390fd5b600073ffffffffffffffffffffffffffffffffffffffff168273ffffffffffffffffffffffffffffffffffffffff1603610c86576040517f08c379a0000000000000000000000000000000000000000000000000000000008152600401610c7d90611a29565b60405180910390fd5b80600160008573ffffffffffffffffffffffffffffffffffffffff1673ffffffffffffffffffffffffffffffffffffffff16815260200190815260200160002060008473ffffffffffffffffffffffffffffffffffffffff1673ffffffffffffffffffffffffffffffffffffffff168152602001908152602001600020819055508173ffffffffffffffffffffffffffffffffffffffff168373ffffffffffffffffffffffffffffffffffffffff167f8c5be1e5ebec7d5bd14f71427d1e84f3dd0314c0f7b2291e5b200ac8c7c3b92583604051610d64919061155e565b60405180910390a3505050565b6000610d7d8484610a96565b90507fffffffffffffffffffffffffffffffffffffffffffffffffffffffffffffffff8114610df75781811015610de9576040517f08c379a0000000000000000000000000000000000000000000000000000000008152600401610de090611a95565b60405180910390fd5b610df68484848403610ba8565b5b50505050565b600073ffffffffffffffffffffffffffffffffffffffff168373ffffffffffffffffffffffffffffffffffffffff1603610e6c576040517f08c379a0000000000000000000000000000000000000000000000000000000008152600401610e6390611b27565b60405180910390fd5b600073ffffffffffffffffffffffffffffffffffffffff168273ffffffffffffffffffffffffffffffffffffffff1603610edb576040517f08c379a0000000000000000000000000000000000000000000000000000000008152600401610ed290611bb9565b60405180910390fd5b610ee6838383611384565b60008060008573ffffffffffffffffffffffffffffffffffffffff1673ffffffffffffffffffffffffffffffffffffffff16815260200190815260200160002054905081811015610f6c576040517f08c379a0000000000000000000000000000000000000000000000000000000008152600401610f6390611c4b565b60405180910390fd5b8181036000808673ffffffffffffffffffffffffffffffffffffffff1673ffffffffffffffffffffffffffffffffffffffff16815260200190815260200160002081905550816000808573ffffffffffffffffffffffffffffffffffffffff1673ffffffffffffffffffffffffffffffffffffffff168152602001908152602001600020600082825401925050819055508273ffffffffffffffffffffffffffffffffffffffff168473ffffffffffffffffffffffffffffffffffffffff167fddf252ad1be2c89b69c2b068fc378daa952ba7f163c4a11628f55a4df523b3ef8460405161105a919061155e565b60405180910390a361106d848484611389565b50505050565b61107b610ba0565b73ffffffffffffffffffffffffffffffffffffffff16611099610713565b73ffffffffffffffffffffffffffffffffffffffff16146110ef576040517f08c379a00000000000000000000000000000000000000000000000000000000081526004016110e690611cb7565b60405180910390fd5b565b600073ffffffffffffffffffffffffffffffffffffffff168273ffffffffffffffffffffffffffffffffffffffff1603611160576040517f08c379a000000000000000000000000000000000000000000000000000000000815260040161115790611d49565b60405180910390fd5b61116c82600083611384565b60008060008473ffffffffffffffffffffffffffffffffffffffff1673ffffffffffffffffffffffffffffffffffffffff168152602001908152602001600020549050818110156111f2576040517f08c379a00000000000000000000000000000000000000000000000000000000081526004016111e990611ddb565b60405180910390fd5b8181036000808573ffffffffffffffffffffffffffffffffffffffff1673ffffffffffffffffffffffffffffffffffffffff1681526020019081526020016000208190555081600260008282540392505081905550600073ffffffffffffffffffffffffffffffffffffffff168373ffffffffffffffffffffffffffffffffffffffff167fddf252ad1be2c89b69c2b068fc378daa952ba7f163c4a11628f55a4df523b3ef846040516112a5919061155e565b60405180910390a36112b983600084611389565b505050565b6000600560009054906101000a900473ffffffffffffffffffffffffffffffffffffffff16905081600560006101000a81548173ffffffffffffffffffffffffffffffffffffffff021916908373ffffffffffffffffffffffffffffffffffffffff1602179055508173ffffffffffffffffffffffffffffffffffffffff168173ffffffffffffffffffffffffffffffffffffffff167f8be0079c531659141344cd1fd0a4f28419497f9722a3daafe3b4186f6b6457e060405160405180910390a35050565b505050565b505050565b600081519050919050565b600082825260208201905092915050565b60005b838110156113c85780820151818401526020810190506113ad565b60008484015250505050565b6000601f19601f8301169050919050565b60006113f08261138e565b6113fa8185611399565b935061140a8185602086016113aa565b611413816113d4565b840191505092915050565b6000602082019050818103600083015261143881846113e5565b905092915050565b600080fd5b600073ffffffffffffffffffffffffffffffffffffffff82169050919050565b600061147082611445565b9050919050565b61148081611465565b811461148b57600080fd5b50565b60008135905061149d81611477565b92915050565b6000819050919050565b6114b6816114a3565b81146114c157600080fd5b50565b6000813590506114d3816114ad565b92915050565b600080604083850312156114f0576114ef611440565b5b60006114fe8582860161148e565b925050602061150f858286016114c4565b9150509250929050565b60008115159050919050565b61152e81611519565b82525050565b60006020820190506115496000830184611525565b92915050565b611558816114a3565b82525050565b6000602082019050611573600083018461154f565b92915050565b60008060006060848603121561159257611591611440565b5b60006115a08682870161148e565b93505060206115b18682870161148e565b92505060406115c2868287016114c4565b9150509250925092565b600060ff82169050919050565b6115e2816115cc565b82525050565b60006020820190506115fd60008301846115d9565b92915050565b60006020828403121561161957611618611440565b5b60006116278482850161148e565b91505092915050565b60006020828403121561164657611645611440565b5b6000611654848285016114c4565b91505092915050565b61166681611465565b82525050565b6000602082019050611681600083018461165d565b92915050565b6000806040838503121561169e5761169d611440565b5b60006116ac8582860161148e565b92505060206116bd8582860161148e565b9150509250929050565b7f4e487b7100000000000000000000000000000000000000000000000000000000600052602260045260246000fd5b6000600282049050600182168061170e57607f821691505b602082108103611721576117206116c7565b5b50919050565b7f4e487b7100000000000000000000000000000000000000000000000000000000600052601160045260246000fd5b6000611761826114a3565b915061176c836114a3565b925082820190508082111561178457611783611727565b5b92915050565b7f4e487b7100000000000000000000000000000000000000000000000000000000600052603260045260246000fd5b60006117c4826114a3565b91507fffffffffffffffffffffffffffffffffffffffffffffffffffffffffffffffff82036117f6576117f5611727565b5b600182019050919050565b7f45524332303a2064656372656173656420616c6c6f77616e63652062656c6f7760008201527f207a65726f000000000000000000000000000000000000000000000000000000602082015250565b600061185d602583611399565b915061186882611801565b604082019050919050565b6000602082019050818103600083015261188c81611850565b9050919050565b7f4f776e61626c653a206e6577206f776e657220697320746865207a65726f206160008201527f6464726573730000000000000000000000000000000000000000000000000000602082015250565b60006118ef602683611399565b91506118fa82611893565b604082019050919050565b6000602082019050818103600083015261191e816118e2565b9050919050565b7f45524332303a20617070726f76652066726f6d20746865207a65726f2061646460008201527f7265737300000000000000000000000000000000000000000000000000000000602082015250565b6000611981602483611399565b915061198c82611925565b604082019050919050565b600060208201905081810360008301526119b081611974565b9050919050565b7f45524332303a20617070726f766520746f20746865207a65726f20616464726560008201527f7373000000000000000000000000000000000000000000000000000000000000602082015250565b6000611a13602283611399565b9150611a1e826119b7565b604082019050919050565b60006020820190508181036000830152611a4281611a06565b9050919050565b7f45524332303a20696e73756666696369656e7420616c6c6f77616e6365000000600082015250565b6000611a7f601d83611399565b9150611a8a82611a49565b602082019050919050565b60006020820190508181036000830152611aae81611a72565b9050919050565b7f45524332303a207472616e736665722066726f6d20746865207a65726f20616460008201527f6472657373000000000000000000000000000000000000000000000000000000602082015250565b6000611b11602583611399565b9150611b1c82611ab5565b604082019050919050565b60006020820190508181036000830152611b4081611b04565b9050919050565b7f45524332303a207472616e7366657220746f20746865207a65726f206164647260008201527f6573730000000000000000000000000000000000000000000000000000000000602082015250565b6000611ba3602383611399565b9150611bae82611b47565b604082019050919050565b60006020820190508181036000830152611bd281611b96565b9050919050565b7f45524332303a207472616e7366657220616d6f756e742065786365656473206260008201527f616c616e63650000000000000000000000000000000000000000000000000000602082015250565b6000611c35602683611399565b9150611c4082611bd9565b604082019050919050565b60006020820190508181036000830152611c6481611c28565b9050919050565b7f4f776e61626c653a2063616c6c6572206973206e6f7420746865206f776e6572600082015250565b6000611ca1602083611399565b9150611cac82611c6b565b602082019050919050565b60006020820190508181036000830152611cd081611c94565b9050919050565b7f45524332303a206275726e2066726f6d20746865207a65726f2061646472657360008201527f7300000000000000000000000000000000000000000000000000000000000000602082015250565b6000611d33602183611399565b9150611d3e82611cd7565b604082019050919050565b60006020820190508181036000830152611d6281611d26565b9050919050565b7f45524332303a206275726e20616d6f756e7420657863656564732062616c616e60008201527f6365000000000000000000000000000000000000000000000000000000000000602082015250565b6000611dc5602283611399565b9150611dd082611d69565b604082019050919050565b60006020820190508181036000830152611df481611db8565b905091905056fea26469706673582212201630224e815bd815478af2c2fc3ff5b640df5f708842d45c2cc17c5e860ea44564736f6c63430008110033",
  "immutableReferences": {},
  "source": "// SPDX-License-Identifier: MIT\r\npragma solidity >=0.6.12 <0.9.0;\r\n\r\nimport \"@openzeppelin/contracts/access/Ownable.sol\";\r\nimport \"@openzeppelin/contracts/token/ERC20/presets/ERC20PresetFixedSupply.sol\";\r\n\r\ncontract XaltsToken is ERC20PresetFixedSupply, Ownable {\r\n\r\n    address tokenContractOwner;\r\n\r\n    mapping(address => bool) whiteList;\r\n    mapping(address => bool) blackList;\r\n\r\n    mapping(address => mapping(address => bool)) associated;\r\n\r\n    mapping(address => address[]) associates;\r\n\r\n    constructor (\r\n        string memory _name,\r\n        string memory _symbol,\r\n        uint256 _initialSupply,\r\n        address _owner,\r\n        address[] memory _whiteList,\r\n        address[] memory _blackList\r\n    ) ERC20PresetFixedSupply (_name, _symbol, _initialSupply, _owner) Ownable () {\r\n\r\n        for(uint i=0; i < _whiteList.length; i++) {\r\n            whiteList[_whiteList[i]] = true;\r\n        }\r\n\r\n        for(uint i=0; i < _blackList.length; i++) {\r\n            blackList[_blackList[i]] = true;\r\n        }\r\n\r\n        tokenContractOwner = _owner;\r\n\r\n    }\r\n\r\n    function whiteListAddress(address _whiteListedAddress) public virtual onlyOwner {\r\n        whiteList[_whiteListedAddress] = true;\r\n    }\r\n\r\n    function blackListAddress(address _blackListedAddress) public virtual onlyOwner {\r\n        blackList[_blackListedAddress] = true;\r\n        address[] memory associatedAddresses = associates[_blackListedAddress];\r\n\r\n        for(uint i = 0; i < associatedAddresses.length; i++) {\r\n            blackList[associatedAddresses[i]] = true;\r\n        }\r\n    }\r\n\r\n    function transfer(address to, uint256 amount) public override returns (bool) {\r\n        require(whiteList[to] && !blackList[to]);\r\n        _transfer(msg.sender, to, amount);\r\n        associated[msg.sender][to] = true;\r\n        associated[to][msg.sender] = true;\r\n        return true;\r\n    }\r\n\r\n}",
  "sourcePath": "C:/Users/aksha/Desktop/xalts/contracts/XaltsToken.sol",
  "compiler": {
    "name": "solc",
    "version": "0.8.17+commit.8df45f5f.Emscripten.clang"
  },
  "schemaVersion": "3.3.4",
  "updatedAt": "2023-01-09T10:38:58.219Z",
  "devdoc": {
    "kind": "dev",
    "methods": {
      "allowance(address,address)": {
        "details": "See {IERC20-allowance}."
      },
      "approve(address,uint256)": {
        "details": "See {IERC20-approve}. NOTE: If `amount` is the maximum `uint256`, the allowance is not updated on `transferFrom`. This is semantically equivalent to an infinite approval. Requirements: - `spender` cannot be the zero address."
      },
      "balanceOf(address)": {
        "details": "See {IERC20-balanceOf}."
      },
      "burn(uint256)": {
        "details": "Destroys `amount` tokens from the caller. See {ERC20-_burn}."
      },
      "burnFrom(address,uint256)": {
        "details": "Destroys `amount` tokens from `account`, deducting from the caller's allowance. See {ERC20-_burn} and {ERC20-allowance}. Requirements: - the caller must have allowance for ``accounts``'s tokens of at least `amount`."
      },
      "decimals()": {
        "details": "Returns the number of decimals used to get its user representation. For example, if `decimals` equals `2`, a balance of `505` tokens should be displayed to a user as `5.05` (`505 / 10 ** 2`). Tokens usually opt for a value of 18, imitating the relationship between Ether and Wei. This is the value {ERC20} uses, unless this function is overridden; NOTE: This information is only used for _display_ purposes: it in no way affects any of the arithmetic of the contract, including {IERC20-balanceOf} and {IERC20-transfer}."
      },
      "decreaseAllowance(address,uint256)": {
        "details": "Atomically decreases the allowance granted to `spender` by the caller. This is an alternative to {approve} that can be used as a mitigation for problems described in {IERC20-approve}. Emits an {Approval} event indicating the updated allowance. Requirements: - `spender` cannot be the zero address. - `spender` must have allowance for the caller of at least `subtractedValue`."
      },
      "increaseAllowance(address,uint256)": {
        "details": "Atomically increases the allowance granted to `spender` by the caller. This is an alternative to {approve} that can be used as a mitigation for problems described in {IERC20-approve}. Emits an {Approval} event indicating the updated allowance. Requirements: - `spender` cannot be the zero address."
      },
      "name()": {
        "details": "Returns the name of the token."
      },
      "owner()": {
        "details": "Returns the address of the current owner."
      },
      "renounceOwnership()": {
        "details": "Leaves the contract without owner. It will not be possible to call `onlyOwner` functions anymore. Can only be called by the current owner. NOTE: Renouncing ownership will leave the contract without an owner, thereby removing any functionality that is only available to the owner."
      },
      "symbol()": {
        "details": "Returns the symbol of the token, usually a shorter version of the name."
      },
      "totalSupply()": {
        "details": "See {IERC20-totalSupply}."
      },
      "transfer(address,uint256)": {
        "details": "See {IERC20-transfer}. Requirements: - `to` cannot be the zero address. - the caller must have a balance of at least `amount`."
      },
      "transferFrom(address,address,uint256)": {
        "details": "See {IERC20-transferFrom}. Emits an {Approval} event indicating the updated allowance. This is not required by the EIP. See the note at the beginning of {ERC20}. NOTE: Does not update the allowance if the current allowance is the maximum `uint256`. Requirements: - `from` and `to` cannot be the zero address. - `from` must have a balance of at least `amount`. - the caller must have allowance for ``from``'s tokens of at least `amount`."
      },
      "transferOwnership(address)": {
        "details": "Transfers ownership of the contract to a new account (`newOwner`). Can only be called by the current owner."
      }
    },
    "version": 1
  },
  "userdoc": {
    "kind": "user",
    "methods": {},
    "version": 1
  }
}