{
  "contractName": "XaltsToken",
  "abi": [
    {
      "inputs": [
        {
          "internalType": "string",
          "name": "_name",
          "type": "string"
        },
        {
          "internalType": "string",
          "name": "_symbol",
          "type": "string"
        },
        {
          "internalType": "uint256",
          "name": "_initialSupply",
          "type": "uint256"
        },
        {
          "internalType": "address",
          "name": "_owner",
          "type": "address"
        },
        {
          "internalType": "address[]",
          "name": "_whiteList",
          "type": "address[]"
        }
      ],
      "stateMutability": "nonpayable",
      "type": "constructor"
    },
    {
      "anonymous": false,
      "inputs": [
        {
          "indexed": true,
          "internalType": "address",
          "name": "owner",
          "type": "address"
        },
        {
          "indexed": true,
          "internalType": "address",
          "name": "spender",
          "type": "address"
        },
        {
          "indexed": false,
          "internalType": "uint256",
          "name": "value",
          "type": "uint256"
        }
      ],
      "name": "Approval",
      "type": "event"
    },
    {
      "anonymous": false,
      "inputs": [
        {
          "indexed": false,
          "internalType": "address",
          "name": "_blackListedAddress",
          "type": "address"
        }
      ],
      "name": "BlackListed",
      "type": "event"
    },
    {
      "anonymous": false,
      "inputs": [
        {
          "indexed": true,
          "internalType": "address",
          "name": "previousOwner",
          "type": "address"
        },
        {
          "indexed": true,
          "internalType": "address",
          "name": "newOwner",
          "type": "address"
        }
      ],
      "name": "OwnershipTransferred",
      "type": "event"
    },
    {
      "anonymous": false,
      "inputs": [
        {
          "indexed": true,
          "internalType": "address",
          "name": "from",
          "type": "address"
        },
        {
          "indexed": true,
          "internalType": "address",
          "name": "to",
          "type": "address"
        },
        {
          "indexed": false,
          "internalType": "uint256",
          "name": "value",
          "type": "uint256"
        }
      ],
      "name": "Transfer",
      "type": "event"
    },
    {
      "anonymous": false,
      "inputs": [
        {
          "indexed": false,
          "internalType": "address",
          "name": "_whiteListedAddress",
          "type": "address"
        }
      ],
      "name": "WhiteListed",
      "type": "event"
    },
    {
      "inputs": [
        {
          "internalType": "address",
          "name": "owner",
          "type": "address"
        },
        {
          "internalType": "address",
          "name": "spender",
          "type": "address"
        }
      ],
      "name": "allowance",
      "outputs": [
        {
          "internalType": "uint256",
          "name": "",
          "type": "uint256"
        }
      ],
      "stateMutability": "view",
      "type": "function"
    },
    {
      "inputs": [
        {
          "internalType": "address",
          "name": "spender",
          "type": "address"
        },
        {
          "internalType": "uint256",
          "name": "amount",
          "type": "uint256"
        }
      ],
      "name": "approve",
      "outputs": [
        {
          "internalType": "bool",
          "name": "",
          "type": "bool"
        }
      ],
      "stateMutability": "nonpayable",
      "type": "function"
    },
    {
      "inputs": [
        {
          "internalType": "address",
          "name": "account",
          "type": "address"
        }
      ],
      "name": "balanceOf",
      "outputs": [
        {
          "internalType": "uint256",
          "name": "",
          "type": "uint256"
        }
      ],
      "stateMutability": "view",
      "type": "function"
    },
    {
      "inputs": [
        {
          "internalType": "uint256",
          "name": "amount",
          "type": "uint256"
        }
      ],
      "name": "burn",
      "outputs": [],
      "stateMutability": "nonpayable",
      "type": "function"
    },
    {
      "inputs": [
        {
          "internalType": "address",
          "name": "account",
          "type": "address"
        },
        {
          "internalType": "uint256",
          "name": "amount",
          "type": "uint256"
        }
      ],
      "name": "burnFrom",
      "outputs": [],
      "stateMutability": "nonpayable",
      "type": "function"
    },
    {
      "inputs": [],
      "name": "decimals",
      "outputs": [
        {
          "internalType": "uint8",
          "name": "",
          "type": "uint8"
        }
      ],
      "stateMutability": "view",
      "type": "function"
    },
    {
      "inputs": [
        {
          "internalType": "address",
          "name": "spender",
          "type": "address"
        },
        {
          "internalType": "uint256",
          "name": "subtractedValue",
          "type": "uint256"
        }
      ],
      "name": "decreaseAllowance",
      "outputs": [
        {
          "internalType": "bool",
          "name": "",
          "type": "bool"
        }
      ],
      "stateMutability": "nonpayable",
      "type": "function"
    },
    {
      "inputs": [
        {
          "internalType": "address",
          "name": "spender",
          "type": "address"
        },
        {
          "internalType": "uint256",
          "name": "addedValue",
          "type": "uint256"
        }
      ],
      "name": "increaseAllowance",
      "outputs": [
        {
          "internalType": "bool",
          "name": "",
          "type": "bool"
        }
      ],
      "stateMutability": "nonpayable",
      "type": "function"
    },
    {
      "inputs": [],
      "name": "name",
      "outputs": [
        {
          "internalType": "string",
          "name": "",
          "type": "string"
        }
      ],
      "stateMutability": "view",
      "type": "function"
    },
    {
      "inputs": [],
      "name": "owner",
      "outputs": [
        {
          "internalType": "address",
          "name": "",
          "type": "address"
        }
      ],
      "stateMutability": "view",
      "type": "function"
    },
    {
      "inputs": [],
      "name": "renounceOwnership",
      "outputs": [],
      "stateMutability": "nonpayable",
      "type": "function"
    },
    {
      "inputs": [],
      "name": "symbol",
      "outputs": [
        {
          "internalType": "string",
          "name": "",
          "type": "string"
        }
      ],
      "stateMutability": "view",
      "type": "function"
    },
    {
      "inputs": [],
      "name": "totalSupply",
      "outputs": [
        {
          "internalType": "uint256",
          "name": "",
          "type": "uint256"
        }
      ],
      "stateMutability": "view",
      "type": "function"
    },
    {
      "inputs": [
        {
          "internalType": "address",
          "name": "from",
          "type": "address"
        },
        {
          "internalType": "address",
          "name": "to",
          "type": "address"
        },
        {
          "internalType": "uint256",
          "name": "amount",
          "type": "uint256"
        }
      ],
      "name": "transferFrom",
      "outputs": [
        {
          "internalType": "bool",
          "name": "",
          "type": "bool"
        }
      ],
      "stateMutability": "nonpayable",
      "type": "function"
    },
    {
      "inputs": [
        {
          "internalType": "address",
          "name": "newOwner",
          "type": "address"
        }
      ],
      "name": "transferOwnership",
      "outputs": [],
      "stateMutability": "nonpayable",
      "type": "function"
    },
    {
      "inputs": [
        {
          "internalType": "address",
          "name": "",
          "type": "address"
        }
      ],
      "name": "whiteList",
      "outputs": [
        {
          "internalType": "bool",
          "name": "",
          "type": "bool"
        }
      ],
      "stateMutability": "view",
      "type": "function"
    },
    {
      "inputs": [
        {
          "internalType": "address",
          "name": "_whiteListedAddress",
          "type": "address"
        }
      ],
      "name": "whiteListAddress",
      "outputs": [],
      "stateMutability": "nonpayable",
      "type": "function"
    },
    {
      "inputs": [
        {
          "internalType": "address",
          "name": "_blackListedAddress",
          "type": "address"
        }
      ],
      "name": "blackListAddress",
      "outputs": [],
      "stateMutability": "nonpayable",
      "type": "function"
    },
    {
      "inputs": [
        {
          "internalType": "address",
          "name": "to",
          "type": "address"
        },
        {
          "internalType": "uint256",
          "name": "amount",
          "type": "uint256"
        }
      ],
      "name": "transfer",
      "outputs": [
        {
          "internalType": "bool",
          "name": "",
          "type": "bool"
        }
      ],
      "stateMutability": "nonpayable",
      "type": "function"
    },
    {
      "inputs": [
        {
          "internalType": "address",
          "name": "saleContract",
          "type": "address"
        },
        {
          "internalType": "uint256",
          "name": "amount",
          "type": "uint256"
        }
      ],
      "name": "prepareForSale",
      "outputs": [],
      "stateMutability": "nonpayable",
      "type": "function"
    }
  ],
  "bytecode": "0x60806040523480156200001157600080fd5b50604051620032e8380380620032e88339818101604052810190620000379190620006d1565b84848484838381600390816200004e9190620009f7565b508060049081620000609190620009f7565b5050506200007581836200017e60201b60201c565b50505050620000996200008d620002eb60201b60201c565b620002f360201b60201c565b60005b81518110156200013157600160076000848481518110620000c257620000c162000ade565b5b602002602001015173ffffffffffffffffffffffffffffffffffffffff1673ffffffffffffffffffffffffffffffffffffffff16815260200190815260200160002060006101000a81548160ff0219169083151502179055508080620001289062000b3c565b9150506200009c565b5081600660006101000a81548173ffffffffffffffffffffffffffffffffffffffff021916908373ffffffffffffffffffffffffffffffffffffffff160217905550505050505062000c75565b600073ffffffffffffffffffffffffffffffffffffffff168273ffffffffffffffffffffffffffffffffffffffff1603620001f0576040517f08c379a0000000000000000000000000000000000000000000000000000000008152600401620001e79062000bea565b60405180910390fd5b6200020460008383620003b960201b60201c565b806002600082825462000218919062000c0c565b92505081905550806000808473ffffffffffffffffffffffffffffffffffffffff1673ffffffffffffffffffffffffffffffffffffffff168152602001908152602001600020600082825401925050819055508173ffffffffffffffffffffffffffffffffffffffff16600073ffffffffffffffffffffffffffffffffffffffff167fddf252ad1be2c89b69c2b068fc378daa952ba7f163c4a11628f55a4df523b3ef83604051620002cb919062000c58565b60405180910390a3620002e760008383620003be60201b60201c565b5050565b600033905090565b6000600560009054906101000a900473ffffffffffffffffffffffffffffffffffffffff16905081600560006101000a81548173ffffffffffffffffffffffffffffffffffffffff021916908373ffffffffffffffffffffffffffffffffffffffff1602179055508173ffffffffffffffffffffffffffffffffffffffff168173ffffffffffffffffffffffffffffffffffffffff167f8be0079c531659141344cd1fd0a4f28419497f9722a3daafe3b4186f6b6457e060405160405180910390a35050565b505050565b505050565b6000604051905090565b600080fd5b600080fd5b600080fd5b600080fd5b6000601f19601f8301169050919050565b7f4e487b7100000000000000000000000000000000000000000000000000000000600052604160045260246000fd5b6200042c82620003e1565b810181811067ffffffffffffffff821117156200044e576200044d620003f2565b5b80604052505050565b600062000463620003c3565b905062000471828262000421565b919050565b600067ffffffffffffffff821115620004945762000493620003f2565b5b6200049f82620003e1565b9050602081019050919050565b60005b83811015620004cc578082015181840152602081019050620004af565b60008484015250505050565b6000620004ef620004e98462000476565b62000457565b9050828152602081018484840111156200050e576200050d620003dc565b5b6200051b848285620004ac565b509392505050565b600082601f8301126200053b576200053a620003d7565b5b81516200054d848260208601620004d8565b91505092915050565b6000819050919050565b6200056b8162000556565b81146200057757600080fd5b50565b6000815190506200058b8162000560565b92915050565b600073ffffffffffffffffffffffffffffffffffffffff82169050919050565b6000620005be8262000591565b9050919050565b620005d081620005b1565b8114620005dc57600080fd5b50565b600081519050620005f081620005c5565b92915050565b600067ffffffffffffffff821115620006145762000613620003f2565b5b602082029050602081019050919050565b600080fd5b6000620006416200063b84620005f6565b62000457565b9050808382526020820190506020840283018581111562000667576200066662000625565b5b835b818110156200069457806200067f8882620005df565b84526020840193505060208101905062000669565b5050509392505050565b600082601f830112620006b657620006b5620003d7565b5b8151620006c88482602086016200062a565b91505092915050565b600080600080600060a08688031215620006f057620006ef620003cd565b5b600086015167ffffffffffffffff811115620007115762000710620003d2565b5b6200071f8882890162000523565b955050602086015167ffffffffffffffff811115620007435762000742620003d2565b5b620007518882890162000523565b945050604062000764888289016200057a565b93505060606200077788828901620005df565b925050608086015167ffffffffffffffff8111156200079b576200079a620003d2565b5b620007a9888289016200069e565b9150509295509295909350565b600081519050919050565b7f4e487b7100000000000000000000000000000000000000000000000000000000600052602260045260246000fd5b600060028204905060018216806200080957607f821691505b6020821081036200081f576200081e620007c1565b5b50919050565b60008190508160005260206000209050919050565b60006020601f8301049050919050565b600082821b905092915050565b600060088302620008897fffffffffffffffffffffffffffffffffffffffffffffffffffffffffffffffff826200084a565b6200089586836200084a565b95508019841693508086168417925050509392505050565b6000819050919050565b6000620008d8620008d2620008cc8462000556565b620008ad565b62000556565b9050919050565b6000819050919050565b620008f483620008b7565b6200090c6200090382620008df565b84845462000857565b825550505050565b600090565b6200092362000914565b62000930818484620008e9565b505050565b5b8181101562000958576200094c60008262000919565b60018101905062000936565b5050565b601f821115620009a757620009718162000825565b6200097c846200083a565b810160208510156200098c578190505b620009a46200099b856200083a565b83018262000935565b50505b505050565b600082821c905092915050565b6000620009cc60001984600802620009ac565b1980831691505092915050565b6000620009e78383620009b9565b9150826002028217905092915050565b62000a0282620007b6565b67ffffffffffffffff81111562000a1e5762000a1d620003f2565b5b62000a2a8254620007f0565b62000a378282856200095c565b600060209050601f83116001811462000a6f576000841562000a5a578287015190505b62000a668582620009d9565b86555062000ad6565b601f19841662000a7f8662000825565b60005b8281101562000aa95784890151825560018201915060208501945060208101905062000a82565b8683101562000ac9578489015162000ac5601f891682620009b9565b8355505b6001600288020188555050505b505050505050565b7f4e487b7100000000000000000000000000000000000000000000000000000000600052603260045260246000fd5b7f4e487b7100000000000000000000000000000000000000000000000000000000600052601160045260246000fd5b600062000b498262000556565b91507fffffffffffffffffffffffffffffffffffffffffffffffffffffffffffffffff820362000b7e5762000b7d62000b0d565b5b600182019050919050565b600082825260208201905092915050565b7f45524332303a206d696e7420746f20746865207a65726f206164647265737300600082015250565b600062000bd2601f8362000b89565b915062000bdf8262000b9a565b602082019050919050565b6000602082019050818103600083015262000c058162000bc3565b9050919050565b600062000c198262000556565b915062000c268362000556565b925082820190508082111562000c415762000c4062000b0d565b5b92915050565b62000c528162000556565b82525050565b600060208201905062000c6f600083018462000c47565b92915050565b6126638062000c856000396000f3fe608060405234801561001057600080fd5b506004361061012c5760003560e01c8063715018a6116100ad578063a9059cbb11610071578063a9059cbb14610345578063cf52a7b214610375578063d4066c8e14610391578063dd62ed3e146103ad578063f2fde38b146103dd5761012c565b8063715018a6146102b357806379cc6790146102bd5780638da5cb5b146102d957806395d89b41146102f7578063a457c2d7146103155761012c565b8063372c12b1116100f4578063372c12b1146101eb578063395093511461021b5780633b0e01331461024b57806342966c681461026757806370a08231146102835761012c565b806306fdde0314610131578063095ea7b31461014f57806318160ddd1461017f57806323b872dd1461019d578063313ce567146101cd575b600080fd5b6101396103f9565b6040516101469190611b0c565b60405180910390f35b61016960048036038101906101649190611bc7565b61048b565b6040516101769190611c22565b60405180910390f35b6101876104ae565b6040516101949190611c4c565b60405180910390f35b6101b760048036038101906101b29190611c67565b6104b8565b6040516101c49190611c22565b60405180910390f35b6101d56104e7565b6040516101e29190611cd6565b60405180910390f35b61020560048036038101906102009190611cf1565b6104f0565b6040516102129190611c22565b60405180910390f35b61023560048036038101906102309190611bc7565b610510565b6040516102429190611c22565b60405180910390f35b61026560048036038101906102609190611cf1565b610547565b005b610281600480360381019061027c9190611d1e565b61078d565b005b61029d60048036038101906102989190611cf1565b6107a1565b6040516102aa9190611c4c565b60405180910390f35b6102bb6107e9565b005b6102d760048036038101906102d29190611bc7565b6107fd565b005b6102e161081d565b6040516102ee9190611d5a565b60405180910390f35b6102ff610847565b60405161030c9190611b0c565b60405180910390f35b61032f600480360381019061032a9190611bc7565b6108d9565b60405161033c9190611c22565b60405180910390f35b61035f600480360381019061035a9190611bc7565b610950565b60405161036c9190611c22565b60405180910390f35b61038f600480360381019061038a9190611cf1565b610d5f565b005b6103ab60048036038101906103a69190611bc7565b610fa5565b005b6103c760048036038101906103c29190611d75565b61105f565b6040516103d49190611c4c565b60405180910390f35b6103f760048036038101906103f29190611cf1565b6110e6565b005b60606003805461040890611de4565b80601f016020809104026020016040519081016040528092919081815260200182805461043490611de4565b80156104815780601f1061045657610100808354040283529160200191610481565b820191906000526020600020905b81548152906001019060200180831161046457829003601f168201915b5050505050905090565b600080610496611169565b90506104a3818585611171565b600191505092915050565b6000600254905090565b6000806104c3611169565b90506104d085828561133a565b6104db8585856113c6565b60019150509392505050565b60006012905090565b60076020528060005260406000206000915054906101000a900460ff1681565b60008061051b611169565b905061053c81858561052d858961105f565b6105379190611e44565b611171565b600191505092915050565b61054f61163c565b6000600760008373ffffffffffffffffffffffffffffffffffffffff1673ffffffffffffffffffffffffffffffffffffffff16815260200190815260200160002060006101000a81548160ff0219169083151502179055507f7fd26be6fc92aff63f1f4409b2b2ddeb272a888031d7f55ec830485ec6194186816040516105d69190611d5a565b60405180910390a16000600960008373ffffffffffffffffffffffffffffffffffffffff1673ffffffffffffffffffffffffffffffffffffffff16815260200190815260200160002080548060200260200160405190810160405280929190818152602001828054801561069f57602002820191906000526020600020905b8160009054906101000a900473ffffffffffffffffffffffffffffffffffffffff1673ffffffffffffffffffffffffffffffffffffffff1681526020019060010190808311610655575b5050505050905060005b8151811015610788576000600760008484815181106106cb576106ca611e78565b5b602002602001015173ffffffffffffffffffffffffffffffffffffffff1673ffffffffffffffffffffffffffffffffffffffff16815260200190815260200160002060006101000a81548160ff0219169083151502179055507f7fd26be6fc92aff63f1f4409b2b2ddeb272a888031d7f55ec830485ec619418682828151811061075857610757611e78565b5b602002602001015160405161076d9190611d5a565b60405180910390a1808061078090611ea7565b9150506106a9565b505050565b61079e610798611169565b826116ba565b50565b60008060008373ffffffffffffffffffffffffffffffffffffffff1673ffffffffffffffffffffffffffffffffffffffff168152602001908152602001600020549050919050565b6107f161163c565b6107fb6000611887565b565b61080f82610809611169565b8361133a565b61081982826116ba565b5050565b6000600560009054906101000a900473ffffffffffffffffffffffffffffffffffffffff16905090565b60606004805461085690611de4565b80601f016020809104026020016040519081016040528092919081815260200182805461088290611de4565b80156108cf5780601f106108a4576101008083540402835291602001916108cf565b820191906000526020600020905b8154815290600101906020018083116108b257829003601f168201915b5050505050905090565b6000806108e4611169565b905060006108f2828661105f565b905083811015610937576040517f08c379a000000000000000000000000000000000000000000000000000000000815260040161092e90611f61565b60405180910390fd5b6109448286868403611171565b60019250505092915050565b6000600760008473ffffffffffffffffffffffffffffffffffffffff1673ffffffffffffffffffffffffffffffffffffffff16815260200190815260200160002060009054906101000a900460ff166109de576040517f08c379a00000000000000000000000000000000000000000000000000000000081526004016109d590611fcd565b60405180910390fd5b600a60003373ffffffffffffffffffffffffffffffffffffffff1673ffffffffffffffffffffffffffffffffffffffff16815260200190815260200160002060009054906101000a900460ff1615610a4457610a3b3384846113c6565b60019050610d59565b600760003373ffffffffffffffffffffffffffffffffffffffff1673ffffffffffffffffffffffffffffffffffffffff16815260200190815260200160002060009054906101000a900460ff16610ad0576040517f08c379a0000000000000000000000000000000000000000000000000000000008152600401610ac790612039565b60405180910390fd5b610adb3384846113c6565b610ae5338461194d565b610d54576001600860003373ffffffffffffffffffffffffffffffffffffffff1673ffffffffffffffffffffffffffffffffffffffff16815260200190815260200160002060008573ffffffffffffffffffffffffffffffffffffffff1673ffffffffffffffffffffffffffffffffffffffff16815260200190815260200160002060006101000a81548160ff0219169083151502179055506001600860008573ffffffffffffffffffffffffffffffffffffffff1673ffffffffffffffffffffffffffffffffffffffff16815260200190815260200160002060003373ffffffffffffffffffffffffffffffffffffffff1673ffffffffffffffffffffffffffffffffffffffff16815260200190815260200160002060006101000a81548160ff021916908315150217905550600960003373ffffffffffffffffffffffffffffffffffffffff1673ffffffffffffffffffffffffffffffffffffffff168152602001908152602001600020839080600181540180825580915050600190039060005260206000200160009091909190916101000a81548173ffffffffffffffffffffffffffffffffffffffff021916908373ffffffffffffffffffffffffffffffffffffffff160217905550600960008473ffffffffffffffffffffffffffffffffffffffff1673ffffffffffffffffffffffffffffffffffffffff168152602001908152602001600020339080600181540180825580915050600190039060005260206000200160009091909190916101000a81548173ffffffffffffffffffffffffffffffffffffffff021916908373ffffffffffffffffffffffffffffffffffffffff1602179055505b600190505b92915050565b610d6761163c565b6001600760008373ffffffffffffffffffffffffffffffffffffffff1673ffffffffffffffffffffffffffffffffffffffff16815260200190815260200160002060006101000a81548160ff0219169083151502179055507f2e00aa132a0165955a7de5481083fd2933e22d472949147a9c3c69eec84c170081604051610dee9190611d5a565b60405180910390a16000600960008373ffffffffffffffffffffffffffffffffffffffff1673ffffffffffffffffffffffffffffffffffffffff168152602001908152602001600020805480602002602001604051908101604052809291908181526020018280548015610eb757602002820191906000526020600020905b8160009054906101000a900473ffffffffffffffffffffffffffffffffffffffff1673ffffffffffffffffffffffffffffffffffffffff1681526020019060010190808311610e6d575b5050505050905060005b8151811015610fa057600160076000848481518110610ee357610ee2611e78565b5b602002602001015173ffffffffffffffffffffffffffffffffffffffff1673ffffffffffffffffffffffffffffffffffffffff16815260200190815260200160002060006101000a81548160ff0219169083151502179055507f2e00aa132a0165955a7de5481083fd2933e22d472949147a9c3c69eec84c1700828281518110610f7057610f6f611e78565b5b6020026020010151604051610f859190611d5a565b60405180910390a18080610f9890611ea7565b915050610ec1565b505050565b610fad61163c565b80610fb7336107a1565b1015610ff8576040517f08c379a0000000000000000000000000000000000000000000000000000000008152600401610fef906120a5565b60405180910390fd5b6001600a60008473ffffffffffffffffffffffffffffffffffffffff1673ffffffffffffffffffffffffffffffffffffffff16815260200190815260200160002060006101000a81548160ff02191690831515021790555061105b3383836113c6565b5050565b6000600160008473ffffffffffffffffffffffffffffffffffffffff1673ffffffffffffffffffffffffffffffffffffffff16815260200190815260200160002060008373ffffffffffffffffffffffffffffffffffffffff1673ffffffffffffffffffffffffffffffffffffffff16815260200190815260200160002054905092915050565b6110ee61163c565b600073ffffffffffffffffffffffffffffffffffffffff168173ffffffffffffffffffffffffffffffffffffffff160361115d576040517f08c379a000000000000000000000000000000000000000000000000000000000815260040161115490612137565b60405180910390fd5b61116681611887565b50565b600033905090565b600073ffffffffffffffffffffffffffffffffffffffff168373ffffffffffffffffffffffffffffffffffffffff16036111e0576040517f08c379a00000000000000000000000000000000000000000000000000000000081526004016111d7906121c9565b60405180910390fd5b600073ffffffffffffffffffffffffffffffffffffffff168273ffffffffffffffffffffffffffffffffffffffff160361124f576040517f08c379a00000000000000000000000000000000000000000000000000000000081526004016112469061225b565b60405180910390fd5b80600160008573ffffffffffffffffffffffffffffffffffffffff1673ffffffffffffffffffffffffffffffffffffffff16815260200190815260200160002060008473ffffffffffffffffffffffffffffffffffffffff1673ffffffffffffffffffffffffffffffffffffffff168152602001908152602001600020819055508173ffffffffffffffffffffffffffffffffffffffff168373ffffffffffffffffffffffffffffffffffffffff167f8c5be1e5ebec7d5bd14f71427d1e84f3dd0314c0f7b2291e5b200ac8c7c3b9258360405161132d9190611c4c565b60405180910390a3505050565b6000611346848461105f565b90507fffffffffffffffffffffffffffffffffffffffffffffffffffffffffffffffff81146113c057818110156113b2576040517f08c379a00000000000000000000000000000000000000000000000000000000081526004016113a9906122c7565b60405180910390fd5b6113bf8484848403611171565b5b50505050565b600073ffffffffffffffffffffffffffffffffffffffff168373ffffffffffffffffffffffffffffffffffffffff1603611435576040517f08c379a000000000000000000000000000000000000000000000000000000000815260040161142c90612359565b60405180910390fd5b600073ffffffffffffffffffffffffffffffffffffffff168273ffffffffffffffffffffffffffffffffffffffff16036114a4576040517f08c379a000000000000000000000000000000000000000000000000000000000815260040161149b906123eb565b60405180910390fd5b6114af838383611a72565b60008060008573ffffffffffffffffffffffffffffffffffffffff1673ffffffffffffffffffffffffffffffffffffffff16815260200190815260200160002054905081811015611535576040517f08c379a000000000000000000000000000000000000000000000000000000000815260040161152c9061247d565b60405180910390fd5b8181036000808673ffffffffffffffffffffffffffffffffffffffff1673ffffffffffffffffffffffffffffffffffffffff16815260200190815260200160002081905550816000808573ffffffffffffffffffffffffffffffffffffffff1673ffffffffffffffffffffffffffffffffffffffff168152602001908152602001600020600082825401925050819055508273ffffffffffffffffffffffffffffffffffffffff168473ffffffffffffffffffffffffffffffffffffffff167fddf252ad1be2c89b69c2b068fc378daa952ba7f163c4a11628f55a4df523b3ef846040516116239190611c4c565b60405180910390a3611636848484611a77565b50505050565b611644611169565b73ffffffffffffffffffffffffffffffffffffffff1661166261081d565b73ffffffffffffffffffffffffffffffffffffffff16146116b8576040517f08c379a00000000000000000000000000000000000000000000000000000000081526004016116af906124e9565b60405180910390fd5b565b600073ffffffffffffffffffffffffffffffffffffffff168273ffffffffffffffffffffffffffffffffffffffff1603611729576040517f08c379a00000000000000000000000000000000000000000000000000000000081526004016117209061257b565b60405180910390fd5b61173582600083611a72565b60008060008473ffffffffffffffffffffffffffffffffffffffff1673ffffffffffffffffffffffffffffffffffffffff168152602001908152602001600020549050818110156117bb576040517f08c379a00000000000000000000000000000000000000000000000000000000081526004016117b29061260d565b60405180910390fd5b8181036000808573ffffffffffffffffffffffffffffffffffffffff1673ffffffffffffffffffffffffffffffffffffffff1681526020019081526020016000208190555081600260008282540392505081905550600073ffffffffffffffffffffffffffffffffffffffff168373ffffffffffffffffffffffffffffffffffffffff167fddf252ad1be2c89b69c2b068fc378daa952ba7f163c4a11628f55a4df523b3ef8460405161186e9190611c4c565b60405180910390a361188283600084611a77565b505050565b6000600560009054906101000a900473ffffffffffffffffffffffffffffffffffffffff16905081600560006101000a81548173ffffffffffffffffffffffffffffffffffffffff021916908373ffffffffffffffffffffffffffffffffffffffff1602179055508173ffffffffffffffffffffffffffffffffffffffff168173ffffffffffffffffffffffffffffffffffffffff167f8be0079c531659141344cd1fd0a4f28419497f9722a3daafe3b4186f6b6457e060405160405180910390a35050565b6000600860008473ffffffffffffffffffffffffffffffffffffffff1673ffffffffffffffffffffffffffffffffffffffff16815260200190815260200160002060008373ffffffffffffffffffffffffffffffffffffffff1673ffffffffffffffffffffffffffffffffffffffff16815260200190815260200160002060009054906101000a900460ff1680611a6a5750600860008373ffffffffffffffffffffffffffffffffffffffff1673ffffffffffffffffffffffffffffffffffffffff16815260200190815260200160002060008473ffffffffffffffffffffffffffffffffffffffff1673ffffffffffffffffffffffffffffffffffffffff16815260200190815260200160002060009054906101000a900460ff165b905092915050565b505050565b505050565b600081519050919050565b600082825260208201905092915050565b60005b83811015611ab6578082015181840152602081019050611a9b565b60008484015250505050565b6000601f19601f8301169050919050565b6000611ade82611a7c565b611ae88185611a87565b9350611af8818560208601611a98565b611b0181611ac2565b840191505092915050565b60006020820190508181036000830152611b268184611ad3565b905092915050565b600080fd5b600073ffffffffffffffffffffffffffffffffffffffff82169050919050565b6000611b5e82611b33565b9050919050565b611b6e81611b53565b8114611b7957600080fd5b50565b600081359050611b8b81611b65565b92915050565b6000819050919050565b611ba481611b91565b8114611baf57600080fd5b50565b600081359050611bc181611b9b565b92915050565b60008060408385031215611bde57611bdd611b2e565b5b6000611bec85828601611b7c565b9250506020611bfd85828601611bb2565b9150509250929050565b60008115159050919050565b611c1c81611c07565b82525050565b6000602082019050611c376000830184611c13565b92915050565b611c4681611b91565b82525050565b6000602082019050611c616000830184611c3d565b92915050565b600080600060608486031215611c8057611c7f611b2e565b5b6000611c8e86828701611b7c565b9350506020611c9f86828701611b7c565b9250506040611cb086828701611bb2565b9150509250925092565b600060ff82169050919050565b611cd081611cba565b82525050565b6000602082019050611ceb6000830184611cc7565b92915050565b600060208284031215611d0757611d06611b2e565b5b6000611d1584828501611b7c565b91505092915050565b600060208284031215611d3457611d33611b2e565b5b6000611d4284828501611bb2565b91505092915050565b611d5481611b53565b82525050565b6000602082019050611d6f6000830184611d4b565b92915050565b60008060408385031215611d8c57611d8b611b2e565b5b6000611d9a85828601611b7c565b9250506020611dab85828601611b7c565b9150509250929050565b7f4e487b7100000000000000000000000000000000000000000000000000000000600052602260045260246000fd5b60006002820490506001821680611dfc57607f821691505b602082108103611e0f57611e0e611db5565b5b50919050565b7f4e487b7100000000000000000000000000000000000000000000000000000000600052601160045260246000fd5b6000611e4f82611b91565b9150611e5a83611b91565b9250828201905080821115611e7257611e71611e15565b5b92915050565b7f4e487b7100000000000000000000000000000000000000000000000000000000600052603260045260246000fd5b6000611eb282611b91565b91507fffffffffffffffffffffffffffffffffffffffffffffffffffffffffffffffff8203611ee457611ee3611e15565b5b600182019050919050565b7f45524332303a2064656372656173656420616c6c6f77616e63652062656c6f7760008201527f207a65726f000000000000000000000000000000000000000000000000000000602082015250565b6000611f4b602583611a87565b9150611f5682611eef565b604082019050919050565b60006020820190508181036000830152611f7a81611f3e565b9050919050565b7f526563657069656e74206973206e6f7420617070726f76656400000000000000600082015250565b6000611fb7601983611a87565b9150611fc282611f81565b602082019050919050565b60006020820190508181036000830152611fe681611faa565b9050919050565b7f596f7520617265206e6f7420617070726f766564000000000000000000000000600082015250565b6000612023601483611a87565b915061202e82611fed565b602082019050919050565b6000602082019050818103600083015261205281612016565b9050919050565b7f496e73756666696369656e742062616c616e636520666f722073616c65000000600082015250565b600061208f601d83611a87565b915061209a82612059565b602082019050919050565b600060208201905081810360008301526120be81612082565b9050919050565b7f4f776e61626c653a206e6577206f776e657220697320746865207a65726f206160008201527f6464726573730000000000000000000000000000000000000000000000000000602082015250565b6000612121602683611a87565b915061212c826120c5565b604082019050919050565b6000602082019050818103600083015261215081612114565b9050919050565b7f45524332303a20617070726f76652066726f6d20746865207a65726f2061646460008201527f7265737300000000000000000000000000000000000000000000000000000000602082015250565b60006121b3602483611a87565b91506121be82612157565b604082019050919050565b600060208201905081810360008301526121e2816121a6565b9050919050565b7f45524332303a20617070726f766520746f20746865207a65726f20616464726560008201527f7373000000000000000000000000000000000000000000000000000000000000602082015250565b6000612245602283611a87565b9150612250826121e9565b604082019050919050565b6000602082019050818103600083015261227481612238565b9050919050565b7f45524332303a20696e73756666696369656e7420616c6c6f77616e6365000000600082015250565b60006122b1601d83611a87565b91506122bc8261227b565b602082019050919050565b600060208201905081810360008301526122e0816122a4565b9050919050565b7f45524332303a207472616e736665722066726f6d20746865207a65726f20616460008201527f6472657373000000000000000000000000000000000000000000000000000000602082015250565b6000612343602583611a87565b915061234e826122e7565b604082019050919050565b6000602082019050818103600083015261237281612336565b9050919050565b7f45524332303a207472616e7366657220746f20746865207a65726f206164647260008201527f6573730000000000000000000000000000000000000000000000000000000000602082015250565b60006123d5602383611a87565b91506123e082612379565b604082019050919050565b60006020820190508181036000830152612404816123c8565b9050919050565b7f45524332303a207472616e7366657220616d6f756e742065786365656473206260008201527f616c616e63650000000000000000000000000000000000000000000000000000602082015250565b6000612467602683611a87565b91506124728261240b565b604082019050919050565b600060208201905081810360008301526124968161245a565b9050919050565b7f4f776e61626c653a2063616c6c6572206973206e6f7420746865206f776e6572600082015250565b60006124d3602083611a87565b91506124de8261249d565b602082019050919050565b60006020820190508181036000830152612502816124c6565b9050919050565b7f45524332303a206275726e2066726f6d20746865207a65726f2061646472657360008201527f7300000000000000000000000000000000000000000000000000000000000000602082015250565b6000612565602183611a87565b915061257082612509565b604082019050919050565b6000602082019050818103600083015261259481612558565b9050919050565b7f45524332303a206275726e20616d6f756e7420657863656564732062616c616e60008201527f6365000000000000000000000000000000000000000000000000000000000000602082015250565b60006125f7602283611a87565b91506126028261259b565b604082019050919050565b60006020820190508181036000830152612626816125ea565b905091905056fea2646970667358221220caf58848909e8d693fee99cb8779337feb707ee604eb989ac7ad7f4faf2c572964736f6c63430008110033",
  "immutableReferences": {},
  "source": "// SPDX-License-Identifier: MIT\r\npragma solidity >=0.6.12 <0.9.0;\r\n\r\nimport \"@openzeppelin/contracts/access/Ownable.sol\";\r\nimport \"@openzeppelin/contracts/token/ERC20/presets/ERC20PresetFixedSupply.sol\";\r\n\r\ncontract XaltsToken is ERC20PresetFixedSupply, Ownable {\r\n\r\n    address tokenContractOwner;\r\n\r\n    mapping(address => bool) public whiteList;\r\n\r\n    mapping(address => mapping(address => bool)) associated;\r\n\r\n    mapping(address => address[]) associates;\r\n\r\n    mapping(address => bool) saleContracts;\r\n\r\n    event WhiteListed(address _whiteListedAddress);\r\n    event BlackListed(address _blackListedAddress);\r\n\r\n    constructor (\r\n        string memory _name,\r\n        string memory _symbol,\r\n        uint256 _initialSupply,\r\n        address _owner,\r\n        address[] memory _whiteList\r\n    ) ERC20PresetFixedSupply (_name, _symbol, _initialSupply, _owner) Ownable () {\r\n\r\n        for(uint i=0; i < _whiteList.length; i++) {\r\n            whiteList[_whiteList[i]] = true;\r\n        }\r\n\r\n        tokenContractOwner = _owner;\r\n\r\n    }\r\n\r\n    function whiteListAddress(address _whiteListedAddress) public onlyOwner {\r\n        whiteList[_whiteListedAddress] = true;\r\n        emit WhiteListed(_whiteListedAddress);\r\n\r\n        address[] memory associatedAddresses = associates[_whiteListedAddress];\r\n\r\n        for(uint i = 0; i < associatedAddresses.length; i++) {\r\n            whiteList[associatedAddresses[i]] = true;\r\n            emit WhiteListed(associatedAddresses[i]);\r\n        }\r\n    }\r\n\r\n    function blackListAddress(address _blackListedAddress) public onlyOwner {\r\n        whiteList[_blackListedAddress] = false;\r\n        emit BlackListed(_blackListedAddress);\r\n\r\n        address[] memory associatedAddresses = associates[_blackListedAddress];\r\n\r\n        for(uint i = 0; i < associatedAddresses.length; i++) {\r\n            whiteList[associatedAddresses[i]] = false;\r\n            emit BlackListed(associatedAddresses[i]);\r\n        }\r\n    }\r\n\r\n    function transfer(address to, uint256 amount) public override returns (bool) {\r\n\r\n        require(whiteList[to], \"Recepient is not approved\");\r\n\r\n        if (saleContracts[msg.sender]) {\r\n            _transfer(msg.sender, to, amount);\r\n            return true;\r\n        }\r\n\r\n        require(whiteList[msg.sender], \"You are not approved\");\r\n        \r\n        _transfer(msg.sender, to, amount);\r\n\r\n        if(!addressesAreAssociated(msg.sender, to)) {\r\n            associated[msg.sender][to] = true;\r\n            associated[to][msg.sender] = true;\r\n            associates[msg.sender].push(to);\r\n            associates[to].push(msg.sender);\r\n        }\r\n\r\n        return true;\r\n    }\r\n\r\n    function addressesAreAssociated(address a, address b) internal view returns (bool) {\r\n        return associated[a][b] || associated[b][a];\r\n    }\r\n\r\n    function prepareForSale(address saleContract, uint256 amount) public onlyOwner {\r\n        require(balanceOf(msg.sender) >= amount, \"Insufficient balance for sale\");\r\n        saleContracts[saleContract] = true;\r\n        _transfer(msg.sender, saleContract, amount);\r\n    }\r\n}",
  "sourcePath": "C:\\Users\\aksha\\Desktop\\xalts\\contracts\\XaltsToken.sol",
  "compiler": {
    "name": "solc",
    "version": "0.8.17+commit.8df45f5f.Emscripten.clang"
  },
  "schemaVersion": "3.3.4",
  "updatedAt": "2023-01-10T11:07:12.260Z",
  "devdoc": {
    "kind": "dev",
    "methods": {
      "allowance(address,address)": {
        "details": "See {IERC20-allowance}."
      },
      "approve(address,uint256)": {
        "details": "See {IERC20-approve}. NOTE: If `amount` is the maximum `uint256`, the allowance is not updated on `transferFrom`. This is semantically equivalent to an infinite approval. Requirements: - `spender` cannot be the zero address."
      },
      "balanceOf(address)": {
        "details": "See {IERC20-balanceOf}."
      },
      "burn(uint256)": {
        "details": "Destroys `amount` tokens from the caller. See {ERC20-_burn}."
      },
      "burnFrom(address,uint256)": {
        "details": "Destroys `amount` tokens from `account`, deducting from the caller's allowance. See {ERC20-_burn} and {ERC20-allowance}. Requirements: - the caller must have allowance for ``accounts``'s tokens of at least `amount`."
      },
      "decimals()": {
        "details": "Returns the number of decimals used to get its user representation. For example, if `decimals` equals `2`, a balance of `505` tokens should be displayed to a user as `5.05` (`505 / 10 ** 2`). Tokens usually opt for a value of 18, imitating the relationship between Ether and Wei. This is the value {ERC20} uses, unless this function is overridden; NOTE: This information is only used for _display_ purposes: it in no way affects any of the arithmetic of the contract, including {IERC20-balanceOf} and {IERC20-transfer}."
      },
      "decreaseAllowance(address,uint256)": {
        "details": "Atomically decreases the allowance granted to `spender` by the caller. This is an alternative to {approve} that can be used as a mitigation for problems described in {IERC20-approve}. Emits an {Approval} event indicating the updated allowance. Requirements: - `spender` cannot be the zero address. - `spender` must have allowance for the caller of at least `subtractedValue`."
      },
      "increaseAllowance(address,uint256)": {
        "details": "Atomically increases the allowance granted to `spender` by the caller. This is an alternative to {approve} that can be used as a mitigation for problems described in {IERC20-approve}. Emits an {Approval} event indicating the updated allowance. Requirements: - `spender` cannot be the zero address."
      },
      "name()": {
        "details": "Returns the name of the token."
      },
      "owner()": {
        "details": "Returns the address of the current owner."
      },
      "renounceOwnership()": {
        "details": "Leaves the contract without owner. It will not be possible to call `onlyOwner` functions anymore. Can only be called by the current owner. NOTE: Renouncing ownership will leave the contract without an owner, thereby removing any functionality that is only available to the owner."
      },
      "symbol()": {
        "details": "Returns the symbol of the token, usually a shorter version of the name."
      },
      "totalSupply()": {
        "details": "See {IERC20-totalSupply}."
      },
      "transfer(address,uint256)": {
        "details": "See {IERC20-transfer}. Requirements: - `to` cannot be the zero address. - the caller must have a balance of at least `amount`."
      },
      "transferFrom(address,address,uint256)": {
        "details": "See {IERC20-transferFrom}. Emits an {Approval} event indicating the updated allowance. This is not required by the EIP. See the note at the beginning of {ERC20}. NOTE: Does not update the allowance if the current allowance is the maximum `uint256`. Requirements: - `from` and `to` cannot be the zero address. - `from` must have a balance of at least `amount`. - the caller must have allowance for ``from``'s tokens of at least `amount`."
      },
      "transferOwnership(address)": {
        "details": "Transfers ownership of the contract to a new account (`newOwner`). Can only be called by the current owner."
      }
    },
    "version": 1
  },
  "userdoc": {
    "kind": "user",
    "methods": {},
    "version": 1
  }
}