{
  "contractName": "XaltsSaleContract",
  "abi": [
    {
      "inputs": [
        {
          "internalType": "uint256",
          "name": "_rate",
          "type": "uint256"
        },
        {
          "internalType": "contract XaltsToken",
          "name": "_tokenContract",
          "type": "address"
        },
        {
          "internalType": "address",
          "name": "_beneficiary",
          "type": "address"
        }
      ],
      "stateMutability": "nonpayable",
      "type": "constructor"
    },
    {
      "inputs": [],
      "name": "rate",
      "outputs": [
        {
          "internalType": "uint256",
          "name": "",
          "type": "uint256"
        }
      ],
      "stateMutability": "view",
      "type": "function"
    },
    {
      "inputs": [],
      "name": "tokenContract",
      "outputs": [
        {
          "internalType": "contract XaltsToken",
          "name": "",
          "type": "address"
        }
      ],
      "stateMutability": "view",
      "type": "function"
    },
    {
      "stateMutability": "payable",
      "type": "receive"
    },
    {
      "inputs": [
        {
          "internalType": "uint256",
          "name": "amount",
          "type": "uint256"
        }
      ],
      "name": "buyToken",
      "outputs": [
        {
          "internalType": "bool",
          "name": "",
          "type": "bool"
        }
      ],
      "stateMutability": "payable",
      "type": "function"
    },
    {
      "inputs": [],
      "name": "withdraw",
      "outputs": [],
      "stateMutability": "payable",
      "type": "function"
    }
  ],
  "bytecode": "0x608060405234801561001057600080fd5b50604051620009ef380380620009ef8339818101604052810190610034919061019c565b8260008190555081600160006101000a81548173ffffffffffffffffffffffffffffffffffffffff021916908373ffffffffffffffffffffffffffffffffffffffff16021790555080600260006101000a81548173ffffffffffffffffffffffffffffffffffffffff021916908373ffffffffffffffffffffffffffffffffffffffff1602179055505050506101ef565b600080fd5b6000819050919050565b6100dd816100ca565b81146100e857600080fd5b50565b6000815190506100fa816100d4565b92915050565b600073ffffffffffffffffffffffffffffffffffffffff82169050919050565b600061012b82610100565b9050919050565b600061013d82610120565b9050919050565b61014d81610132565b811461015857600080fd5b50565b60008151905061016a81610144565b92915050565b61017981610120565b811461018457600080fd5b50565b60008151905061019681610170565b92915050565b6000806000606084860312156101b5576101b46100c5565b5b60006101c3868287016100eb565b93505060206101d48682870161015b565b92505060406101e586828701610187565b9150509250925092565b6107f080620001ff6000396000f3fe6080604052600436106100435760003560e01c80632c4e722e146100745780632d296bf11461009f5780633ccfd60b146100cf57806355a373d6146100d95761006f565b3661006f57600034111561006d57600061005f34600054610104565b905061006a8161011a565b50505b005b600080fd5b34801561008057600080fd5b50610089610252565b60405161009691906103a8565b60405180910390f35b6100b960048036038101906100b491906103f4565b61011a565b6040516100c6919061043c565b60405180910390f35b6100d7610258565b005b3480156100e557600080fd5b506100ee610353565b6040516100fb91906104d6565b60405180910390f35b60008183610112919061054f565b905092915050565b600061012882600054610379565b34101561016a576040517f08c379a0000000000000000000000000000000000000000000000000000000008152600401610161906105dd565b60405180910390fd5b600160009054906101000a900473ffffffffffffffffffffffffffffffffffffffff1673ffffffffffffffffffffffffffffffffffffffff1663a9059cbb33846040518363ffffffff1660e01b81526004016101c792919061061e565b6020604051808303816000875af11580156101e6573d6000803e3d6000fd5b505050506040513d601f19601f8201168201806040525081019061020a9190610673565b610249576040517f08c379a0000000000000000000000000000000000000000000000000000000008152600401610240906106ec565b60405180910390fd5b60019050919050565b60005481565b600260009054906101000a900473ffffffffffffffffffffffffffffffffffffffff1673ffffffffffffffffffffffffffffffffffffffff163373ffffffffffffffffffffffffffffffffffffffff16146102e8576040517f08c379a00000000000000000000000000000000000000000000000000000000081526004016102df90610758565b60405180910390fd5b600260009054906101000a900473ffffffffffffffffffffffffffffffffffffffff1673ffffffffffffffffffffffffffffffffffffffff166108fc479081150290604051600060405180830381858888f19350505050158015610350573d6000803e3d6000fd5b50565b600160009054906101000a900473ffffffffffffffffffffffffffffffffffffffff1681565b600081836103879190610778565b905092915050565b6000819050919050565b6103a28161038f565b82525050565b60006020820190506103bd6000830184610399565b92915050565b600080fd5b6103d18161038f565b81146103dc57600080fd5b50565b6000813590506103ee816103c8565b92915050565b60006020828403121561040a576104096103c3565b5b6000610418848285016103df565b91505092915050565b60008115159050919050565b61043681610421565b82525050565b6000602082019050610451600083018461042d565b92915050565b600073ffffffffffffffffffffffffffffffffffffffff82169050919050565b6000819050919050565b600061049c61049761049284610457565b610477565b610457565b9050919050565b60006104ae82610481565b9050919050565b60006104c0826104a3565b9050919050565b6104d0816104b5565b82525050565b60006020820190506104eb60008301846104c7565b92915050565b7f4e487b7100000000000000000000000000000000000000000000000000000000600052601260045260246000fd5b7f4e487b7100000000000000000000000000000000000000000000000000000000600052601160045260246000fd5b600061055a8261038f565b91506105658361038f565b925082610575576105746104f1565b5b828204905092915050565b600082825260208201905092915050565b7f496e73756666696369656e742046756e64732050726f76696465640000000000600082015250565b60006105c7601b83610580565b91506105d282610591565b602082019050919050565b600060208201905081810360008301526105f6816105ba565b9050919050565b600061060882610457565b9050919050565b610618816105fd565b82525050565b6000604082019050610633600083018561060f565b6106406020830184610399565b9392505050565b61065081610421565b811461065b57600080fd5b50565b60008151905061066d81610647565b92915050565b600060208284031215610689576106886103c3565b5b60006106978482850161065e565b91505092915050565b7f546f6b656e205472616e73666572204661696c65640000000000000000000000600082015250565b60006106d6601583610580565b91506106e1826106a0565b602082019050919050565b60006020820190508181036000830152610705816106c9565b9050919050565b7f4e6f7420616e20617070726f7665642062656e65666963696172790000000000600082015250565b6000610742601b83610580565b915061074d8261070c565b602082019050919050565b6000602082019050818103600083015261077181610735565b9050919050565b60006107838261038f565b915061078e8361038f565b925082820261079c8161038f565b915082820484148315176107b3576107b2610520565b5b509291505056fea26469706673582212209f50e294e4b5d33cab42a1c496b38da9df01483309fdbcfd58f0eeb2d5462dc364736f6c63430008110033",
  "immutableReferences": {},
  "source": "// SPDX-License-Identifier: MIT\r\npragma solidity >=0.6.12 <0.9.0;\r\n\r\nimport \"./XaltsToken.sol\";\r\nimport \"@openzeppelin/contracts/utils/math/SafeMath.sol\";\r\n\r\ncontract XaltsSaleContract {\r\n\r\n    uint256 public rate;\r\n    XaltsToken public tokenContract;\r\n    address payable beneficiary;\r\n\r\n    constructor (uint256 _rate, XaltsToken _tokenContract, address _beneficiary) {\r\n        rate = _rate;\r\n        tokenContract = _tokenContract;\r\n        beneficiary = payable(_beneficiary);\r\n    }\r\n\r\n    function buyToken(uint256 amount) public payable returns (bool) {\r\n        require(msg.value >= SafeMath.mul(amount, rate), \"Insufficient Funds Provided\");\r\n        require(tokenContract.transfer(msg.sender, amount), \"Token Transfer Failed\");\r\n        return true;\r\n    }\r\n\r\n    function withdraw() public payable {\r\n        require(msg.sender == beneficiary, \"Not an approved beneficiary\");\r\n        beneficiary.transfer(address(this).balance);\r\n    }\r\n\r\n    receive() external payable {\r\n        if (msg.value > 0) {\r\n            uint256 amount = SafeMath.div(msg.value, rate);\r\n            buyToken(amount);\r\n        }\r\n    }\r\n\r\n}",
  "sourcePath": "C:/Users/aksha/Desktop/xalts/contracts/SaleContract.sol",
  "compiler": {
    "name": "solc",
    "version": "0.8.17+commit.8df45f5f.Emscripten.clang"
  },
  "schemaVersion": "3.3.4",
  "updatedAt": "2023-01-10T11:07:12.237Z",
  "devdoc": {
    "kind": "dev",
    "methods": {},
    "version": 1
  },
  "userdoc": {
    "kind": "user",
    "methods": {},
    "version": 1
  }
}